:0200000460009A
:100000004643464200000156000000000103030081
:1000100000000000000000000000000000000000E0
:1000200000000000000000000000000000000000D0
:1000300000000000000000000000000000000000C0
:1000400000000000010408000000000000000000A3
:100050000000800000000000000000000000000020
:100060000000000000000000000000000000000090
:100070000000000000000000000000000000000080
:10008000EB04180A063204260000000000000000FD
:10009000050404240000000000000000000000002F
:1000A0000000000000000000000000000000000050
:1000B0000604000000000000000000000000000036
:1000C0000000000000000000000000000000000030
:1000D00020041808000000000000000000000000DC
:1000E0000000000000000000000000000000000010
:1000F0000000000000000000000000000000000000
:10010000D8041808000000000000000000000000F3
:100110000204180804200000000000000000000095
:1001200000000000000000000000000000000000CF
:10013000600400000000000000000000000000005B
:1001400000000000000000000000000000000000AF
:10015000000000000000000000000000000000009F
:10016000000000000000000000000000000000008F
:10017000000000000000000000000000000000007F
:10018000000000000000000000000000000000006F
:10019000000000000000000000000000000000005F
:1001A000000000000000000000000000000000004F
:1001B000000000000000000000000000000000003F
:1001C000000100000010000001000000000000001D
:1001D000000001000000000000000000000000001E
:1001E000000000000000000000000000000000000F
:1001F00000000000000000000000000000000000FF
:10020000FFFFFFFFFFFFFFFFFFFFFFFFFFFFFFFFFE
:10021000FFFFFFFFFFFFFFFFFFFFFFFFFFFFFFFFEE
:10100000D10020434D1600600000000000000000E9
:10101000201000600010006000600360000000000D
:1010200000000060006C030000000000FFFFFFFFF5
:10103000FFFFFFFFFFFFFFFFFFFFFFFFFFFFFFFFC0
:10104000FFFFFFFFFFFFFFFFFFFFFFFFFFFFFFFFB0
:10105000FFFFFFFFFFFFFFFFFFFFFFFFFFFFFFFFA0
:10106000FFFFFFFFFFFFFFFFFFFFFFFFFFFFFFFF90
:10140000814205D051F8043B40F8043B8242F9D8B0
:10141000704700BF044A05494FF0000342F8043BFF
:101420009142FBD8704700BFC0CE0020C0F2002020
:101430002DE98848BFF34F8F00BF00BF00BF00BF3A
:1014400000F0D6F9684B0822C3F8542100BF00BF52
:1014500000BF00BF00BF00BF00BF00BF00BF00BF94
:1014600000BF00BF00BF00BF00BF00BF5F4A6049B0
:101470006048FFF7C5FF604A60496148FFF7C0FF59
:10148000604CFFF7C7FF4FF470004FF0E0210023DE
:101490005D4AC1F8880D44F823200133B02BFAD1FE
:1014A0005A4B80215A4A03F8011B9342FBD14FF05B
:1014B000E0254D4E4FF08039DFF884B1DFF884A18C
:1014C0004FF0FF31C5F8084D0027C6F80491C6F863
:1014D00000B1C6F8F490C6F8F0A0D5F8243DDFF8C6
:1014E000688143F4E0234B4AC5F8243DD8F81C300A
:1014F00023F07F0343F04003C8F81C30D8F82430B1
:1015000023F07F0343F04003C8F824309166D1668E
:101510001167516700F074F93F4B4049A363404B9A
:10152000E36363236B610323AF612B613D4BC5F81C
:10153000203DD5F8FC3D43F08073C5F8FC3D3A4BA7
:101540001A6842F001021A605B680B6000F0A2FBAF
:10155000C6F804913548C6F800B1C6F8F490C6F84C
:10156000F0A000F031FDD8F86C10314B314A41F455
:101570004051C8F86C101F60C3F80871C3F81871A7
:10158000C3F82871C3F83871936BDB0708D442F6AF
:101590001563294951651365936B43F00103936308
:1015A000244A264C936843F00113936000F0B0F98D
:1015B00000F0D4FC00F00CFD00F09AFB00F01AF9EA
:1015C0002368132BFCD900F02BFC2368B3F5967F1E
:1015D000FBD300F013F900F00FF900F00DFD00F05F
:1015E000FBFC30BFFDE700BF00800D40286D02000E
:1015F0001422006000000000C0CE0020408F026076
:101600000000002000CC002061FF000000E400E0AA
:10161000A0E400E000C00A402114010038F20020DC
:101620002514010000002020001000E00046C32324
:101630000040084000400D400000C0563CF2002031
:101640001B1018200C0D111300C00F40054B4FF458
:101650002A01054A05485A641864054A9963954663
:10166000FFF7E6FE00C00A40FFABAAAA0700200071
:101670000080052043690A4A03EB011010B4037A85
:10168000084C02EB0313D3E901321460C2681A60FC
:1016900003690BB142691A605DF8044B704700BFE3
:1016A000CCB3002061F801004369027E03EB021213
:1016B00092F808C08C451CD01A7AFF2A19D09142A2
:1016C00010B5044616D01A7EFF2A06D00121D3E9B0
:1016D000002312681A4201D1217610BD064B052263
:1016E000204603EB0C135B681A60FFF7C3FF2176FB
:1016F000F3E770470021EAE7CCB3002043690A4AC8
:1017000003EB011010B490F82830084C02EB0313DF
:10171000D3E901321460C26A1A60036B0BB1426BE9
:101720001A605DF8044B7047CCB3002061F80100EB
:101730004369427E03EB021292F828C08C451ED00A
:1017400093F82820FF2A1AD0914210B5044617D0EA
:1017500093F83820FF2A06D00121D3E9002312682C
:101760001A4201D1617610BD064B0522204603EBDB
:101770000C135B681A60FFF7C1FF6176F3E77047EF
:101780000021EAE7CCB30020164942698B6B23F4B1
:101790007C0343F4802370B58B630446124DD2E979
:1017A00000130A681A4303690A60022200211A61C1
:1017B0000E4A19619A6401225A629D624FF43035D3
:1017C000DD624FF001159E6C1E6519629D651A6100
:1017D000017EFFF74FFF617E2046BDE87040FFF7B6
:1017E0008DBF00BF00C00F40B80B05053B3728195F
:1017F000704700BF704700BF704700BF00BF704711
:1018000010B44FF0E023002110243148C3F8941D98
:10181000C3F89C4D1124C3F8A00D2E48C3F89C4D6D
:101820001224C3F8A00D2C48C3F89C4D2B4AC3F8D2
:10183000A00D2B4C42F015022A48C3F89C4DC3F86A
:10184000A00D294C2948C3F89C4DC3F8A00D284C85
:10185000C3F89C2D2748284AC3F8A04DC3F89C0D17
:10186000C3F8A02D02F5A022244C0C322448C3F862
:101870009C4DC3F8A02D234AC3F89C0D224CC3F8FD
:10188000A02D02F14062C3F89C4D2048C3F8A02D62
:101890000C32C3F89C0DC3F8A02D00BF00BF00BFE1
:1018A00000BF00BF0122C3F8942DBFF34F8FBFF3D9
:1018B0006F8FC3F8501FBFF34F8FBFF36F8FD3F8F5
:1018C000142D5DF8044B42F44032C3F8142D7047D8
:1018D0003F0000102500080709001000C0F200209A
:1018E0001300200021000207140000202500081327
:1018F000090000101600202027000B1317000040DD
:10190000180000602F000B07190000701A000080FB
:10191000F0B5B84B1822B84E0120B84F83B0C3F8C9
:101920005C62B749C3F86072B64DC3F86462A6F54D
:101930003046B54CC3F86862C3F86C52C3F87052B5
:10194000C3F87452C3F8785248F20C75DA661A6715
:101950005A679A67DA67C3F88020C3F88420C3F80F
:101960008820C1F82C03A94AC1F83003C1F8340318
:10197000C1F83803C1F83C03C1F85003A169A44B76
:101980000A40A448A4491343A44AA361D4F884306C
:1019900043F00C03C4F884304FF0FF34036843F085
:1019A0000203036003682B404FF400551A439C4B1D
:1019B000026044608A689B4C13409B4A43F000538A
:1019C0008360C36823F07803C360036A1340234332
:1019D0000362036A1340954A2343954C4362826233
:1019E000C2620022D1F8B83023F03F0343F0010374
:1019F000C0F8B830D1F8BC308E4923F03F0343F033
:101A00000103C0F8BC3040F205630261056604675B
:101A1000C0F88030456644670224C0F8843003680B
:101A200023F0020303608161834B8449C46143F85E
:101A3000042B8B42FBD1774A136843F001031360F8
:101A4000136813F00103FBD17A48022140F2F564D8
:101A5000906140F29940D16140F26641C2F8004283
:101A600042F20144C2F810127549C2F82002C2F8CD
:101A7000301240F235417348C2F83442C2F8401285
:101A8000714CC2F8500242F201207049C2F854125F
:101A90000121C2F86042C2F864025E48C2F8A03078
:101AA000C2F8A430C2F8B0104369DA07FCD50123AC
:101AB00000244FF4803257494361C0F8A040C0F879
:101AC000A420C0F8B0304B69DB07FCD5012300240B
:101AD0004FF400304F4A4B61C1F8A040C1F8A40058
:101AE000C1F8B0305369DF07FCD501230024584802
:101AF00048495361C2F8A040C2F8A400C2F8B0300F
:101B00004B69DE07FCD5D1F8003145F60D52212096
:101B10009BB24861934265D100244FF48022012397
:101B20003C48C1F8A040C1F8A420C1F8B0304369D6
:101B3000DD07FCD501234FF400040021354A436141
:101B4000C0F8A040C0F8A410C0F8B0305369DC075A
:101B5000FCD501234FF400044FF480302D4953612C
:101B6000C2F8A040C2F8A400C2F8B0304B69D80750
:101B7000FCD501234FF400044FF40030254A4B619B
:101B8000C1F8A040C1F8A400C1F8B0305369D9072A
:101B9000FCD501234FF400042D481E495361C2F8BF
:101BA000A040C2F8A400C2F8B0304B69DA07FCD5F7
:101BB000D1F8003145F60D5221209BB24861934285
:101BC00050D008254FF4000422490020224B234A1C
:101BD000009015705A1A01232148224400F0F0F9B0
:101BE00003B0F0BD1E4B0022C3E90022C3E902226C
:101BF00003B0F0BD00801F40F9B00100F9100100F2
:101C000000841F40F970010000C00F40FFFCFF1F5F
:101C1000000300A000402A4000802A401200FFFF7D
:101C2000FF37F7004000008000FFF07CFF000F83CB
:101C300063000200F05AF05A00422A4000432A4052
:101C40009F041830EB06180A3806180A06320126D7
:101C500004000300000000700000007080F200200B
:101C600040E500204FF400044FF48022012308488F
:101C7000C1F8A040C1F8A420C1F8B0304369DB0727
:101C8000FCD5012310254FF0807443619CE700BF11
:101C900000402A40F0B4154A40274FF480314FF4F9
:101CA00080564FF400554FF4404443F2420013690C
:101CB00013F0020F0ED113F4005F0FD013F4805F06
:101CC0000ED0002BF3DA13F4803F0BD15B060BD55B
:101CD000F0BC7047946151619061E8E75561E6E7B7
:101CE0005661E4E79161E2E75761E0E700800D406B
:101CF0003F4A03203F49F3EE095AD2F880304FF0B3
:101D0000000C9FED3D6A23F001039FED3C5A30B477
:101D1000C2F88030C2F89000D1F8E010384DCBB254
:101D2000384C39482B6007EE903A0B0DC1F30B216C
:101D3000F8EEE77A06EE903A07EE101A334BB8EE5B
:101D4000C77A2160F8EEE66A314937EEC66A37EEA7
:101D5000C55A76EEC76A77EEE57A26EE266AC3EDB7
:101D6000006A25EE265AD2F8803067EEA64AC0ED0A
:101D7000007AC6EE275A274885EE276AC4EEA76A7E
:101D800075EE875AFCEEE55A36EE076A15EE904A74
:101D9000BCEEC66A43EA045376EE877AC2F8803016
:101DA00016EE103AD2F89041FCEEE77A01EA0341D0
:101DB000214317EE903AC2F89011C3F30B03D2F807
:101DC00090110B431449C2F89031D2F8803043F09F
:101DD0000203C2F88030114B80F840C0C1F8403196
:101DE0004FF0E023012230BCC3F80821704700BF48
:101DF00000810D4000441F400000AA420000B44290
:101E000028F2002024F200202CF2002030F20020E2
:101E10000000FF0F00E400E000CC00204D010100B5
:101E2000314B40F6617210B5C3F8202140F20444F2
:101E300000F0D6F82D4A2E49D2F880302D4843F0D4
:101E40000303C2F880302C4BC1F8604102681A428B
:101E500003D1D1F8A8319A071BD0254A4FF0004191
:101E6000244B5963D2F8403143F00203C2F84031A9
:101E7000D2F840319B07FBD44FF400304FF0E02103
:101E80001C4B4FF00042C1F88C0219209A6300F0FD
:101E9000ABF8184A4FF08040154C002190630A209F
:101EA000164B11604FF42072C4F8A801184600F0D8
:101EB0009FF84FF4800203464FF4810040F2431133
:101EC0001860C4F858311A640D4B0E4AC4F8481112
:101ED000C3F804224FF0E0224FF400310123C2F88E
:101EE0000C11C4F8403110BD00800D4000C00F40FF
:101EF00000002E4000900D40001C1E00000000203D
:101F000000CC00203503010008B50E4B1B6E9B076B
:101F100000D4FBBE72B60C4B00200C4AC3F8400143
:101F200003F160430A49A3F55F2311649D46BFF3A3
:101F30004F8F4FF400130748074ADB6902609B6824
:101F4000984700BF00441F4000002E4000C00A40D8
:101F50000300200000802020000012EB104BA02086
:101F6000104AD96E41F4403110B4D96640F237645A
:101F7000D96E41F44071D96654649064936C1B0629
:101F8000FCD4094A40F23761A02351649364936CF6
:101F900013F08003FBD1054A13705DF8044B7047C2
:101FA00000C00F4000400C4000800C407FF2002039
:101FB000F8B500BFF8BC08BC9E46704700000000A2
:101FC0005FF800F0911401005FF800F03DF70000A9
:101FD0005FF800F049FE00005FF800F011FC00001F
:101FE0005FF800F0A50A01005FF800F02DFA00008C
:101FF0005FF800F001E101005FF800F071E401001A
:1020000045000000811A0000D1720000F9DF0000D5
:0C201000CDE6000075F00000098801001A
:10201C0080C00F40000000031900000010000000F9
:10202C00E8841F4001000000FF000000FF000000DA
:10203C00000000000000000018000000100000006C
:10204C00E4841F4001000000FF000000FF000000BE
:10205C0000000000000000001F00000071260000BE
:10206C0070C00F40000C00001100000011000000B7
:10207C00E0841F40020000002C0000001200000051
:10208C00E0841F400100000010000000110000005F
:10209C00DC841F40020000002D0000001200000034
:1020AC00DC841F40010000001E00000065260000BB
:1020BC0070C00F40C00000001200000013000000B0
:1020CC00D0841F4001000000FF000000FF00000052
:1020DC0000000000000000001300000013000000CE
:1020EC00CC841F4001000000FF000000FF00000036
:1020FC0000000000000000001C0000005926000039
:10210C001603550053004200200053006500720076
:10211C00690061006C000000180354006500650044
:10212C006E00730079006400750069006E006F002A
:10213C000403090409026200030100C032080B0009
:10214C000202020100090400000102020100052440
:10215C0000100105240101010424020605240600D7
:10216C00010705820310001009040100020A000097
:10217C000007050302400000070584024000000927
:10218C0004020002FF6AFF000705810240000107FC
:10219C00050102400001000009026200030100C0B9
:1021AC0032080B00020202010009040000010202C5
:1021BC00010005240010010524010101042402067C
:1021CC00052406000107058203100005090401001F
:1021DC00020A000000070503020002000705840242
:1021EC000002000904020002FF6AC7000705810211
:1021FC000002010705010200020100000A060002AC
:08220C00EF0201400100000097
:1022140000000000000000000000000000000000BA
:1022240000000000000000000000000000000000AA
:102234000548064B1B1AD90F01EBA301491002D024
:10224400034B03B118477047C0CE0020C0CE002016
:102254000000000008B5054B1BB105490548AFF364
:102264000080BDE80840FFF7E3BF00BF00000000A6
:10227400D4F10020006C03600B46816810B504465D
:102284001046C4E900320DF0A7FF40F2DC5160684B
:102294000DF0A8FF014B1B68E36010BD3CF2002069
:1022A400406818B14FF4FA610DF09CBF704700BF4D
:1022B400406818B140F2DC510DF094BF704700BF84
:1022C40070B50668A6B10D4651B1044608461EF025
:1022D400DFFB33680246294630465B689847266828
:1022E40033683046012203495B68BDE870401847F3
:1022F40070BD00BF2C20002000207047704700BF35
:10230400036D0BB101207047406D003818BF0120E8
:10231400704700BF10B50446806D18B11BF0FEFF76
:102324000023A365236D2BB104F11800BDE8104010
:1023340006F0B4BC636D002BF6D110BD10B5044695
:10234400806D00B110BD4FF480701BF0DFFFA065FD
:10235400B0B10022236D02703BB101464FF480728C
:10236400184606F0EBF8A06D10BD636D002BE9D0A4
:1023740001464FF48072184604F078F8A06D10BD41
:10238400014B1846A36510BD7EF2002038B5056DDB
:102394006DB10BB1002038BD1146284605F0F4F8A4
:1023A4000028F7D02846BDE8384005F08FBA446DC0
:1023B400002CEFD0204603F007F80028EAD020468E
:1023C400BDE8384003F07ABE8A79A2F150031B06B7
:1023D40022D402F26C72F0B54B7985B0046D0133EE
:1023E4000D798E784F78DBB209784CB1204601968E
:1023F4000095CDE90271022105F0FCF905B0F0BDAC
:10240400406D0028FAD001960095CDE902710221B1
:1024140003F098FD05B0F0BD0020704710B50446E8
:10242400006D80B1037813F0700F00D110BD00214E
:1024340005F0AAF8606D0028F8D000220023BDE85A
:10244400104002F0C1BF606D0028EFD090F8313029
:1024540013F0500FEAD000220023BDE8104002F030
:10246400B3BF00BF036D10B50C4682B02BB30DF1A2
:10247400060201A9184604F02DFC38B3BDF8043057
:10248400BDF8062053EA020120D0C2F3451C02F035
:102494001F00D20AC3F34311400084F801C0A270A4
:1024A4005A0A013903F01F0302F5EA622070012081
:1024B40061712371A27102B010BD406D30B10DF194
:1024C400060201A902F026FE0028D7D1002002B09E
:1024D40010BD00BF036D10B50C4682B02BB30DF1D7
:1024E400060201A9184604F0E5FB38B3BDF8043030
:1024F400BDF8062053EA020120D0C2F3451C02F0C5
:102504001F00D20AC3F34311400084F801C0A27033
:102514005A0A013903F01F0302F5EA622070012010
:1025240061712371A27102B010BD406D30B10DF123
:10253400060201A902F0DCFD0028D7D1002002B078
:1025440010BD00BF006990B10368154A1B6993422E
:1025540025D1036D63B1187810F0080007D0D8694D
:102564005B69C01A48BF6FF0004070471846704757
:10257400436D002BFAD093F8310010F00800F6D028
:10258400186919685A69401A5B6862EB0303B0F171
:10259400004F73F10003EAD36FF00040704718470F
:1025A400FD060000036923B31968134A10B58C684B
:1025B40082B0944214D1186D48B101220DF1070183
:1025C40004F09AFD90B19DF8070002B010BD586D5B
:1025D4000028F8D001220DF1070102F00FFEF1E707
:1025E40001220DF107011846A047EBE74FF0FF3039
:1025F400EBE74FF0FF307047D5050000036963B186
:102604001A68074992698A4208D1186D08B105F021
:10261400EBB8586D08B103F01FBB7047184610475C
:102624003906000000B5006983B08DF8071060B169
:102634000368104ADB68934215D1036D43B101224C
:102644000DF10701184605F07BF903B05DF804FBB2
:10265400406D0028F9D001220DF1070103F0A0FD1F
:1026640003B05DF804FB01220DF10701984703B0A4
:102674005DF804FB4D060000036973B11A6808494C
:1026840052698A4207D1186D08B104F009BE586D29
:1026940018B102F083BE184610474FF0FF30704760
:1026A4007D050000036D13B1586900217047436D27
:1026B40013B1D3E90001704718461946704700BFAB
:1026C400036D13B1D86900217047436D13B1D3E989
:1026D4000401704718461946704700BFF0B595B01D
:1026E40000224FF47A74244F1831054604A88DF85B
:1026F4000C200097CDE90124CDE9122206F03AFB23
:10270400129B002B2DD05C2000260FF02BFC019B8C
:1027140004464660C36004A9029B183040F8083C94
:102724009DF80C3000F8043C144B40F8183C144B52
:1027340040F8103C06F070FA124B4FF47A72A7601E
:102744002B606368A66501336E602E73AA602C61EA
:1027540063600D4B04A8009306F0A0FA284615B058
:10276400F0BD139B002BCED1064A2B732A602B613C
:10277400C5E90134EDE700BFD03A0020F43A002067
:10278400503B0020A43A002080390020036D13B18F
:10279400184604F085BD406D08B102F0FFBD4FF04E
:1027A400FF307047836C13B1184604F079BDC06CD8
:1027B40008B102F0F3BD4FF0FF307047036D33B141
:1027C4001B7813F0700F14BF012000207047406D78
:1027D40030B190F8313013F0500F14BF01200020B5
:1027E400704700BF036D13B1184604F085BC406DFB
:1027F40008B102F003BD4FF0FF307047836C00B5A1
:1028040083B063B101220DF10701184604F074FC92
:1028140001280CD19DF8070003B05DF804FBC06CDF
:1028240028B101220DF1070102F0E8FCF0E74FF0B6
:10283400FF30F1E7836C13B1184604F0D5BFC06CC8
:1028440008B103F009BA7047036D13B1184604F0D8
:10285400CBBF406D08B103F0FFB97047036D13B1EE
:10286400184605F06DB8406D08B103F099BC704787
:10287400836C13B1184605F063B8C06C08B103F05B
:102884008FBC704700B5836C83B08DF8071043B1DB
:1028940001220DF10701184605F052F803B05DF866
:1028A40004FBC06C0028F9D001220DF1070103F0EC
:1028B40077FC03B05DF804FB8A79A2F150031B0690
:1028C40022D402F26C72F0B54B7985B0046D0133F9
:1028D4000D798E784F78DBB209784CB12046019699
:1028E4000095CDE90271042104F084FF05B0F0BD28
:1028F400406D0028FAD001960095CDE902710421BB
:1029040003F020FB05B0F0BD00207047036D53B108
:10291400187810F008000DD0D8695B69C01A48BF58
:102924006FF000407047436DA3B193F8310010F08D
:10293400080000D17047186919685A69401A5B6821
:1029440062EB0303B0F1004F73F10003F2D36FF0B5
:10295400004070471846EDE7836C53B1187810F0C7
:1029640008000DD0D8695B69C01A48BF6FF00040F9
:102974007047C36CA3B193F8310010F0080000D184
:102984007047186919685A69401A5B6862EB030357
:10299400B0F1004F73F10003F2D36FF000407047C1
:1029A4001846EDE70369D3B10E4810B41C68E46817
:1029B40084420FD1186D18B15DF8044B04F0C0BF08
:1029C400586D18B15DF8044B03F0EABB00205DF8C4
:1029D400044B7047184623465DF8044B1847002003
:1029E400704700BF4D06000038B504460C4B806D9F
:1029F400236018B11BF092FC0023A365236D04F13E
:102A040018054BB1284606F049F9064B2846A36041
:102A140006F044F9204638BD636D002BF2D1F4E78B
:102A2400F43A00208039002038B504460E4B806DFE
:102A3400236018B11BF072FC0023A365236D04F11D
:102A440018056BB1284606F029F9084B2846A360FF
:102A540006F024F920465C210FF08AFA204638BD9E
:102A6400636D002BEED1F0E7F43A002080390020AA
:102A740030B4029C11469C4634B1012C1CD0022C6B
:102A84000ED0002030BC7047056DF5B14FF0FF3318
:102A9400934274EB0C04F4D3284630BC04F074BDA8
:102AA400026D0AB3D36959184CF10003002BE8D125
:102AB400104630BC04F068BD026D62B15369591808
:102AC4004CF10003002BDCD1F2E7406D0028D8D094
:102AD40030BC02F079BC406D0028D2D0D0E900238C
:102AE4008A184CEB0303F3E7406D0028C9D0D0E902
:102AF400042330BC8A184CEB030302F065BC00BF0E
:102B040070B5244B044605690360002D32D06E680D
:102B1400013E6E6076BB2B681F4ADB6A93422FD15D
:102B2400A86D10B11BF0FAFBAE652B6D23B305F154
:102B3400180006F0B3F82569E5B12B68174A5B68FD
:102B4400934224D1164BA86D2B6018B11BF0E6FB01
:102B54000023AB652B6D05F11806A3B1304606F0D2
:102B64009DF8104B3046AB6006F098F85C2128467F
:102B74000FF0FEF9204670BD6B6D002BD7D1DAE75C
:102B840028469847D7E76B6D002BE7D1E9E728463D
:102B94009847EFE7A43A0020050100001908000057
:102BA400F43A00208039002070B5264B04460569AC
:102BB4000360002D32D06E68013E6E6076BB2B68D8
:102BC400214ADB6A934233D1A86D10B11BF0A6FBF6
:102BD400AE652B6D43B305F1180006F05FF8256967
:102BE400E5B12B68194A5B68934228D1184BA86D4C
:102BF4002B6018B11BF092FB0023AB652B6D05F124
:102C04001806C3B1304606F049F8124B3046AB60A3
:102C140006F044F85C2128460FF0AAF92046142156
:102C24000FF0A6F9204670BD6B6D002BD3D1D6E70B
:102C340028469847D3E76B6D002BE3D1E5E7284698
:102C44009847EBE7A43A00200501000019080000AA
:102C5400F43A00208039002000214FF4486210B576
:102C64000446C0F8801C1DF053FB204610BD00BF75
:102C74002DE9F0439BB00A460023A649054606A861
:102C840006F026F9189B002B00F032815C20002608
:102C94000FF068F9A04B0DF128090446DFF898827B
:102CA4004946C0E90036079B183040F80C3C9B4B62
:102CB40040F8103C089B40F8083C9DF8243000F88C
:102CC400043C05F0A9FF6368A665013302968DF8FC
:102CD40010606360924BCDF80480A3604FF47A7364
:102CE400059403938F4F4846069705F0D7FF059C3C
:102CF400002C00F08A8023688B4A1B6B934240F0BF
:102D04001D81236D002B42D00023C5F8803C874EE3
:102D140005E006A80EF050FD059C002C33D0236876
:102D24001B69B34275D1236D002B00F0C8801A785B
:102D3400110772D5D8695B69C01A6CD5D5F8803C87
:102D4400312B6ADC00230A2201A906A80EF02EFC0E
:102D540006A80EF0CFFD089B013B3E2BD9D8D5F831
:102D6400801C06A80023402205EB81110EF0A6FD6D
:102D7400D5F8803C06A80133C5F8803C0EF01CFD54
:102D8400059C002CCBD101201BB0BDE8F083636D02
:102D9400002BB9D1CDF804806568013D6560002D34
:102DA40033D12368624ADB6A934240F0EC80A06D21
:102DB40010B11BF0B3FAA565236D002B00F0D98088
:102DC40004F1180005F06AFF059CF4B12368594A20
:102DD4005B68934240F0E6804F4BA06D236018B1CE
:102DE4001BF09CFA0023A365236D04F11805002B46
:102DF40000F0CF80284605F051FF2846A76005F073
:102E04004DFF5C2120460FF0B3F800201BB0BDE855
:102E1400F08320469847002890D1059C002CB2D01E
:102E24002368434EDB6AB34240F0A080A06D18B122
:102E34001BF074FA0023A365236D002B00F091802E
:102E440004F1180005F02AFF059D6C68013C6C60D4
:102E5400002C98D12B68DB6AB34240F09780A86DB0
:102E640010B11BF05BFAAC652B6D002B00F0868073
:102E740005F1180005F012FF059C002C83D023688F
:102E84002C4A5B68934240F09080234BA06D2360F2
:102E940018B11BF043FA0023A365236D04F1180550
:102EA400002B7BD0284605F0F9FE2846A76005F0E4
:102EB400F5FE20465C210FF05BF8012064E7636DAA
:102EC400002BAAD093F831201207A6D51A681869E6
:102ED400801A5A695B6862EB0303B0F1004F73F127
:102EE400000398D36FF0004000287FF427AF94E7E5
:102EF400199B002B7FF4CAAE4FF47A72DFF8388046
:102F04000DF1280902938DF810300392CDF8048056
:102F14000593E7E61CDB0020F43A0020503B002038
:102F2400D03A002080390020F1000000FD060000A6
:102F34000501000019080000A43A00202046984723
:102F440030B9059CCDF80480002C7FF425AF5DE7F3
:102F54000023059CC5F8803C002C7FF4D8AE0120EA
:102F640012E7636D002B7FF46BAF6DE72046984743
:102F74006AE7636D002B7FF423AF25E76B6D002BAD
:102F84007FF476AF78E7204698471DE728469847B0
:102F940072E7636D002B7FF42DAF2EE7636D002B7A
:102FA40080D182E7204698472FE720469847EAE6F3
:102FB400002906DBD0F8803C8B4202DD00EB811057
:102FC40070470020704700BFD0F8800C704700BFE6
:102FD400007C7047007C704741747047407C7047A8
:102FE400B7EE006B86EE007B80ED087B704700BF78
:102FF40090ED0A7B90ED086B034630EE477BB4EE10
:10300400C67BF1EE10FA01DA00207047012083ED4F
:103014000A0B7047007E7047036810B55B6B04466B
:103024009847B0FA80F35B092374237610BD00BF80
:10303400037C10B55BB1036804469B6B9847236817
:1030440001462046DB6B0C469847204610BD4FF0E6
:10305400FF34FAE7037C002914BF002303F00103C3
:10306400037670475022303008B50EF0E1FE08BDFB
:10307400006B7047037C10B55BB1036804469B6B1F
:103084009847236801462046DB6B0C469847204648
:1030940010BD4FF0FF34FAE7037C10B55BB1036851
:1030A40004469B6B9847236801462046DB6B0C461D
:1030B4009847204610BD4FF0FF34FAE700207047D0
:1030C40000207047002070470020704738B5044640
:1030D4000D46502230300EF0ABFE2946502204F546
:1030E40080700EF0A5FE5022294604F5E4700EF01F
:1030F4009FFE38BD036810B55B6B044698470028F3
:103104000CBF012300232374237604D1012384F804
:10311400E03084F8A83110BD704700BF034B10B5F0
:103124000446036007F04AFE204610BDA43C00207C
:10313400064B10B50446036007F040FE4FF49F6150
:1031440020460EF015FF204610BD00BFA43C002011
:10315400054B10B5044640F8643B01F055FC20468D
:1031640007F082F8204610BD7C420020034B10B5C6
:103174000446036007F0BAF9204610BD403D002024
:10318400054B10B50446036007F0B0F9C82120468A
:103194000EF0EEFE204610BD403D0020034B10B55E
:1031A4000446036006F082FE204610BD343E002033
:1031B400054B10B50446036006F078FEC82120468E
:1031C4000EF0D6FE204610BD343E002010B50B4A4A
:1031D40004460B4B00F5CC702260C4F8983107F01C
:1031E40085F92046074B40F8D03F06F05FFE064BBA
:1031F4002046236006F060F8204610BDF843002006
:10320400403D0020343E0020DC42002091ED267B2E
:1032140091ED1C3B91ED104B91ED166B91ED241B40
:1032240027EE044B024627EE066B27EE037B91ED57
:103234001A3B91ED0E5B91ED140BA1EE037BA5EE11
:10324400014BA1EE006B91ED282B91ED1E5B91EDEE
:10325400183B30B4A2EE057B00F1100500F1200408
:10326400A2EE036B91ED125B42F8185BA5EE024BE4
:10327400C0E9012480ED066B30BC80ED087B80ED55
:10328400044B704791ED307B91ED1C3B91ED104B5D
:1032940091ED166B91ED2E1B27EE044B024627EEA3
:1032A400066B27EE037B91ED1A3B91ED0E5B91EDDE
:1032B400140BA1EE037BA5EE014BA1EE006B91ED87
:1032C400322B91ED1E5B91ED183B30B4A2EE057BE1
:1032D40000F1100500F12004A2EE036B91ED125BE6
:1032E40042F8185BA5EE024BC0E9012480ED066BA1
:1032F40030BC80ED087B80ED044B7047D1F8C020D2
:1033040092ED061B91ED1C3B91ED106B91ED167B3C
:1033140091ED0E5B21EE066B21EE077B21EE031B84
:1033240091ED144B91ED1A2B10B42DED028B92ED0F
:10333400048B92ED080B91ED123BA8EE047B024640
:1033440000F11004A5EE086BA8EE021B91ED184BDA
:1033540091ED1E5BA3EE006B00F1200142F8184BC7
:10336400A0EE047BA0EE051BBDEC028BC0E901219D
:103374005DF8044B80ED046B80ED067B80ED081B4B
:10338400704700BFD1F8C02092ED061B91ED1C3BA5
:1033940091ED106B91ED167B91ED0E5B21EE066BBA
:1033A40021EE077B21EE031B91ED144B91ED1A2BBB
:1033B40010B42DED028B92ED048B92ED080B91ED80
:1033C400123BA8EE047B024600F11004A5EE086B44
:1033D400A8EE021B91ED184B91ED1E5BA3EE006B62
:1033E40000F1200142F8184BA0EE047BA0EE051B6F
:1033F400BDEC028BC0E901215DF8044B80ED046B48
:1034040080ED067B80ED081B704700BF0022474B10
:1034140001630139C0E90E23C0E91623C0E91E2364
:1034240000220023C0E91023C0E91223C0E91423B9
:10343400C0E91823C0E91A23C0E91C23082914D8B9
:10344400DFE801F0141B2229384756650500BFEE5A
:10345400007B0022002380ED107BB7EE007BC0E9E7
:103464000E23C0E9162380ED147B70470022304BF5
:10347400C0E91623C0E91E23704700222C4BC0E983
:103484000E23C0E91E2370470022294BC0E90E23F6
:10349400C0E916237047B7EE007B0022002380EDBD
:1034A400187BBFEE007BC0E91623C0E91E2380ED24
:1034B4001C7B7047BFEE007B0022002380ED187B4D
:1034C400B7EE007BC0E91623C0E91E2380ED1C7B08
:1034D4007047BFEE007B0022002380ED127BB7EE25
:1034E400007BC0E90E23C0E91E2380ED1A7B7047E0
:1034F400B7EE007B0022002380ED127BBFEE007B41
:10350400C0E90E23C0E91E2380ED1A7B7047B7EE95
:10351400007B0022002380ED107BBFEE007BC0E91E
:103524000E23C0E9162380ED147B70470000F03FA2
:103534000000F0BF00227C4B01F1FF3C0163C0E9B5
:103544000E23C0E91623C0E91E2300220023C0E98C
:103554001023C0E91223C0E91423C0E91823C0E9E9
:103564001A23C0E91C230022BCF1080F00F2F381E6
:10357400DFE81CF040007300A600DE0015014C01DA
:103584008301BA0109000023BFEE007BC0E90E23CA
:10359400C0E91623C0E94623C0E94C23C0E94E2301
:1035A400C0E95023C0E94223C0E94A23C0E9782393
:1035B400C0E97E23C0E98023C0E98223C0E97423E3
:1035C400C0E97C2309230022C0F80031C0F8C831C7
:1035D400554B80ED107B80ED447B80ED767BC0E91C
:1035E4001423C0E95223C0E94823C0E98423C0E975
:1035F4007A2370474D4BB7EE007B0121C0E91623B7
:10360400C0E91E23C0E94A23C0E95223C0E97C2350
:10361400C0E9842300220023C0F80011C0F8C811B7
:1036240080ED427BC0E94423C0E94623C0E9482336
:10363400C0E94C23C0E94E23C0E9502380ED747BDC
:10364400C0E97623C0E97823C0E97A23C0E97E2360
:10365400C0E98023C0E982237047344BB7EE007B76
:103664000221C0E90E23C0E91E23C0E94223C0E9B8
:103674005223C0E97423C0E9842300220023C0F844
:103684000011C0F8C811C0E94423C0E94623C0E9C9
:10369400482380ED4A7BC0E94C23C0E94E23C0E9AE
:1036A4005023C0E97623C0E97823C0E97A2380ED6A
:1036B4007C7BC0E97E23C0E98023C0E98223704774
:1036C4001A4BB7EE007B0321C0E90E23C0E9162391
:1036D400C0E94223C0E94A23C0E97423C0E97C233A
:1036E40000220023C0F80011C0F8C811C0E9442327
:1036F400C0E94623C0E94823C0E94C23C0E94E236E
:10370400C0E9502380ED527BC0E97623C0E97823D9
:10371400C0E97A23C0E97E23C0E98023C0E982237B
:1037240080ED847B704700BF0000F03F0000F0BFD5
:103734000023B7EE007BC0E91623C0E91E23C0E9CD
:103744004423C0E94623C0E94823C0E94E23C0E925
:103754004A23C0E95223C0E97623C0E97823C0E9AB
:103764007A23C0E98023C0E97C23C0E984230423AD
:103774000022C0F80031C0F8C831874B80ED187BB7
:1037840080ED427B80ED4C7B80ED747B80ED7E7B15
:10379400C0E91C23C0E95023C0E9822370470023F9
:1037A400BFEE007BC0E91623C0E91E23C0E9442311
:1037B400C0E94623C0E94823C0E94E23C0E94A23AF
:1037C400C0E95223C0E97623C0E97823C0E97A230B
:1037D400C0E98023C0E97C23C0E9842305230022B7
:1037E400C0F80031C0F8C8316C4B80ED187B80ED17
:1037F4004C7B80ED7E7BC0E91C23C0E94223C0E9F9
:103804005023C0E97423C0E9822370470023BFEE2C
:10381400007BC0E90E23C0E91E23C0E94423C0E9AC
:103824004823C0E94C23C0E95023C0E94223C0E93E
:103834005223C0E97623C0E97A23C0E97E23C0E994
:103844008223C0E97423C0E9842306230022C0F83C
:103854000031C0F8C831514B80ED127B80ED467BBE
:1038640080ED787BC0E91A23C0E94A23C0E94E23DE
:10387400C0E97C23C0E9802370470023B7EE007BB6
:10388400C0E90E23C0E91E23C0E94423C0E948234C
:10389400C0E94C23C0E95023C0E94223C0E95223C4
:1038A400C0E97623C0E97A23C0E97E23C0E98223F4
:1038B400C0E97423C0E9842307230022C0F800313F
:1038C400C0F8C831344B80ED127B80ED4A7B80ED2B
:1038D400467B80ED7C7B80ED787BC0E91A23C0E9D0
:1038E4004E23C0E9802370470023B7EE007BC0E974
:1038F4000E23C0E91623C0E94623C0E94C23C0E9DE
:103904004E23C0E95023C0E94223C0E94A23C0E959
:103914007823C0E97E23C0E98023C0E98223C0E97B
:103924007423C0E97C2308230022C0F80031C0F8C6
:10393400C831194B80ED107B80ED527B80ED447BC8
:1039440080ED847B80ED767BC0E91423C0E94823B5
:10395400C0E97A237047114BC0F80011C0F8C811B0
:10396400C0E94223C0E94A23C0E95223C0E97423D1
:10397400C0E97C23C0E9842300220023C0E9442356
:10398400C0E94623C0E94823C0E94C23C0E94E23DB
:10399400C0E9502354E600BF0000F0BF0000F03F30
:1039A400F8B5066904464768BE4213D00136A568D7
:1039B40010312068182205EB85030135DB00103334
:1039C40018441CF029FC266195FBF7F307FB1355FB
:1039D400A560F8BDC368721E0133026193FBF6F261
:1039E40006FB1233C360E2E770B5044694B00029C5
:1039F40054D1036801466846DB6C98470EAB10AAA5
:103A040012A90DF1100E9C460C91CDE90A32BEE8C4
:103A14000F00ACE80F009EE803008CE803000AA93D
:103A240004F1A800FFF7BCFF94F8BC30012B45D982
:103A3400D4F8B400D4E92A65411C90FBF5F205FBE7
:103A44001202033002EB820206EBC20292ED045B27
:103A540091FBF5F305FB1313013103EB830306EB31
:103A6400C30393ED047BB4EE457BF1EE10FA1FD152
:103A740093ED066B92ED067BB4EE476BF1EE10FA14
:103A840016D193ED086B92ED087BB4EE476BF1EE23
:103A940010FA0DD18842DBD1237EA3B9002323760B
:103AA40084F8BC30C4F8B830C4E92C3314B070BD09
:103AB400237EABB10123237614B070BD013384F8A7
:103AC400BC3014B070BD05F051FC23680546204697
:103AD4009B68984709490246284605F0DDFCDDE766
:103AE40005F044FC2368054620469B689847044932
:103AF4000246284605F0BEFCDCE700BFA42F0020E8
:103B0400D82F002070B5044694B0002954D103681E
:103B140001466846DB6C98470EAB10AA12A90DF15A
:103B2400100E9C460C91CDE90A32BEE80F00ACE8B9
:103B34000F009EE803008CE803000AA904F1A80022
:103B4400FFF72EFF94F8BC30012B45D9D4F8B4000C
:103B5400D4E92A65411C90FBF5F205FB12020330FF
:103B640002EB820206EBC20292ED045B91FBF5F3D9
:103B740005FB1313013103EB830306EBC30393ED3E
:103B8400047BB4EE457BF1EE10FA1FD193ED066B86
:103B940092ED067BB4EE476BF1EE10FA16D193ED7D
:103BA400086B92ED087BB4EE476BF1EE10FA0DD181
:103BB4008842DBD1237EA3B90023237684F8BC306A
:103BC400C4F8B830C4E92C3314B070BD237EABB153
:103BD4000123237614B070BD013384F8BC3014B0D3
:103BE40070BD05F0C3FB2368054620469B689847D3
:103BF40009490246284605F04FFCDDE705F0B6FB0F
:103C04002368054620469B6898470449024628468F
:103C140005F030FCDCE700BF3830002070300020B5
:103C240010B50E4A04460E4B00F5CC702260C4F861
:103C3400983106F05BFC20460A4B40F8D03F06F072
:103C440035F9094B2046236005F036FB20464FF436
:103C540044710EF08DF9204610BD00BFF8430020DA
:103C6400403D0020343E0020DC420020074B10B5CC
:103C7400044640F8643B00F0C7FE204606F0F4FA20
:103C84002046B0210EF074F9204610BD7C4200207D
:103C94002DE9F041682182B0344C1823344F354D5E
:103CA4002246354E38460091344906F0F9FC2A463E
:103CB400384633490FF036FD7723224631493046E2
:103CC400314C06F06FFC2A46304930460FF02AFD8D
:103CD4002F480CF00DFA2F4E2046DFF8E08009F053
:103CE400C3F82A462C4920460FF01CFD21463046D5
:103CF400002408F001FE2A46284930460FF012FD40
:103D040027481722274900F12003274F82602A46BB
:103D1400036100F12803254E436100F13003C0E93B
:103D240000448361C0E90844C0E90A44C0E90C4482
:103D34000FF0F8FC1E48FEF78FFF012322461D49B1
:103D4400404605F0C1FC2A46394640460FF0EAFCDD
:103D5400224601231849304605F0B6FC2A46394666
:103D6400304602B0BDE8F0410FF0DCBC38BE0020A4
:103D740008D80020CCC20020A0D10020B41D00200F
:103D8400BD0F0000BC1D002008D30020410F00001F
:103D940020E5002050D200200D0F000025A70000D0
:103DA400B8D20020090F0000E174000044F20020A2
:103DB40050E50020C41D0020D01D002028E500206F
:103DC4002DE9F04FBE4887B008F00AFEBD4BBE4C4B
:103DD400D3F8902193ED4A5B92ED067B92ED040BB0
:103DE40093ED482B27EE055B93ED446B93ED423B3B
:103DF400A0EE025B27EE066B92ED081B93ED4C2BB5
:103E0400A3EE006BA1EE025B93ED503B93ED464BAA
:103E140027EE037BA4EE016B93ED4E3B93ED524BE7
:103E240084ED0A5BA0EE037B25EE050B84ED086BA5
:103E3400A1EE047BA6EE060B84ED0C7BA7EE070B2C
:103E4400B5EE400BF1EE10FA00F12C81B1EEC06B2F
:103E540094ED0F7A13219D48B7EEC77A9FED944BEA
:103E64009FED955B27EE047BA6EE057BB7EEC77B43
:103E740084ED0E7A0FF082FA94ED0E0A0221944832
:103E8400B7EEC00A0DF0DCFA91480DF0AFFAD4EDAC
:103E94000E7A9FED907AF4EEC77AF1EE10FA40F3C1
:103EA400B98094F842302BB98B4B01221B6884F8FB
:103EB400422063649FED877AF4EEC77AF1EE10FA3C
:103EC40014D5002384F8423063649FED827AF4EEC3
:103ED400C77AF1EE10FA09DC94F8403033BBD4ED24
:103EE4000E7AC4ED0F7A07B0BDE8F08F94F8403035
:103EF400E3B9794D626C2B689B1AB3F5FA7FF0D95C
:103F0400A36C002BEDD105F031FA744905F0B2FA37
:103F14002B686D48E360FEF7C3F9012384F8403051
:103F240005F024FA6E4905F0A5FAD5E794F8413076
:103F3400002BD4D1A56C6B48FFF746F8854271DAA3
:103F4400A16C6848FFF734F806460028C7D001463C
:103F54005D48FEF7B5F90D2163480FF00FFAA16C27
:103F64005B480DF037FA022160480FF007FA30463B
:103F74001CF08EFD584D014630460FF0FFF95448B1
:103F84000DF034FA5A4ED5F80080DFF874A1DFF84A
:103F9400749141F2873703E00CF0F2FC00284DD114
:103FA4002B683046A3EB0803BB42F5D9514E504D64
:103FB400DFF854810122314628460DF0BDF9284628
:103FC4000DF014FA64200DF039FE28460CF0D8FCEC
:103FD4000028EFD000230A22294668460DF0E6FAAD
:103FE40068460DF087FC414603A80DF0C7FB03A902
:103FF40068460DF04FFC074603A80DF0DDFB68464C
:104004000DF0DAFB002FD5D0A36CD4ED0E7A01337A
:10401400A36466E77FF559AF94F84230002B3FF470
:1040240054AF4EE72848FEF743F9012384F84130A2
:1040340005F09CF9304905F01DFA50E700230A22E7
:10404400314668460DF0B2FA68460DF053FC51460D
:1040540068460DF009FC4946834603A80DF08EFB23
:1040640003A968460DF016FC074603A80DF0A4FB4F
:1040740037B968460DF0A0FBBBF1000F89D095E776
:10408400134D0C221D492B6828465B6898476946E6
:1040940028460DF079F928460DF0A8F968460DF088
:1040A4008BFB83E718F0FCF9B0EE406BD0E600BF61
:1040B4009A9999999999C93F9A9999999999E93F9E
:1040C40050D2002008D80020B8D2002074B70020B5
:1040D40068BD0020000020423CF2002088B7002088
:1040E400BCB7002050E50020D8B70020E8B7002076
:1040F400D8BD002008B8002014B80020F8B700206C
:10410400ECB70020F0B700200CB800202DE9F843EC
:10411400784D40F2EE28784C784FDFF844922E68C0
:104124000FF0AAF92378002B39D03B78DB0736D57A
:104134002B68D9F800209B1A0E2B30D97048002226
:104144004FF4E13105460CF0F9FC04226D49284690
:104154000DF0F2F84FF4FA600DF070FD01E00CF090
:1041640061FC28460CF00CFC04462846002CF6D1D1
:1041740001226549654806F08FFF654901226348BD
:1041840006F068FF0A2163480CF03EFBA0B91B212E
:1041940061480FF0F3F861480DF028F9FEE72B6849
:1041A40022789B1B2AB1B3F5FA6FC7D80FF064F9D4
:1041B400B6E74345FAD9C1E759495A48FEF758FDCD
:1041C40038B9252158480FF0D9F854480DF00EF9A4
:1041D400FEE7072155480FF0D1F85248FEF7F4FEE8
:1041E40001464E480DF0F6F81A2151480FF0C6F872
:1041F4004A48504D0DF0FAF813214F480FF0BEF81D
:1042040046480DF0F3F828464C4A3D49FEF734F889
:104214000023A5F840400522494939486C64EC6004
:10422400AC64EB6385F842400DF086F84549002202
:1042340000230024444D0820C1E91223C1E91823B6
:10424400C1E91A23C1E91C23C1E90E23C1E91623DC
:10425400C1E94623C1E94C23C1E94E23C1E95023F6
:10426400C1E94223C1E94A23C1E97823C1E97E2394
:10427400C1E98023C1E98223C1E97423C1E97C2314
:104284000022324B0863C1F80001C1F8C8011F487D
:10429400C1E91423C1E94823C1E97A23C1E91E45D0
:1042A400C1E91045C1E95245C1E94445C1E9844524
:1042B400C1E9764506F05AFF2549144806F00EFF79
:1042C4001B2124480FF05AF814480DF08FF82248A7
:1042D40008F066FC08B1BDE8F88329211F480FF0F7
:1042E4004DF80E480DF082F84FF47A700DF0A6FCEC
:1042F400FAE700BF3CF2002088F2002087F2002099
:10430400D8BD0020C8B8002070C8002008D3002001
:10431400B0C8002018DB0020D0B8002068BD002001
:1043240028B9002050E50020ECB8002014B9002082
:104334001CB90020B8D2002038B9002020E50020A4
:104344004CB9002008D800200000F03F0000F0BF66
:10435400A0D1002054B9002050D2002070B9002010
:1043640064F2002090F8A32090F8A200101A70477D
:1043740090F8A23090F8A3209A4205D95A1C03441D
:1043840080F8A220987E70474FF0FF30704700BF3E
:1043940090F8A23090F8A3209A4202D91844807E63
:1043A40070474FF0FF307047704700BF0346B0F8C6
:1043B400300178B193F82F21882A03D901220020F3
:1043C4005A60704702F1010C01201A4483F82FC18E
:1043D40082F8A510704700BF38B5B0F830410CB969
:1043E400204638BD90F82F310546C3F18904A24216
:1043F4000DD8144605F1A500224618440DF018FD09
:1044040095F82F312046234485F82F3138BD0122F9
:104414004260EFE72DE9F04FD0F814A01524017E97
:104424008146437E83B00AEB0111384A0AEB031339
:10443400374F097A93F8283002EB01150901E8682F
:1044440052F8018002EB0311D5F804B01B01CE68C9
:10445400D558CBF80040C8F88400D8F804304A682E
:1044640003432C490192C8F804301460C5F88460F1
:104474006B6833436B60284B4C683A68A3FB023289
:10448400920C02EB820252004B681B1B9A42FBD82F
:104494004FF0090C1F4ADFF880E0D8F808300342D7
:1044A40002D0AB6833422FD1C5F8886054683968AC
:1044B400AEFB0131890C01EB810153681B1B99424E
:1044C400FBD8C5F8846054683968AEFB0131890CA7
:1044D40001EB810153681B1B9942FBD8BCF1010C11
:1044E400DBD1604699F81830019A0AEB0313DB68B4
:1044F400CBF8003099F819300AEB031ADAF82C30AB
:10450400136003B0BDE8F08F0120EBE7CCB30020CB
:1045140014BD0020001000E083DE1B430E4A10B5DA
:104524001168046905E0DB0107D413685B1A102BDA
:1045340008D8636913F0007FF5D14FF4FE430120DE
:10454400636110BDFFF766FF0028FAD04FF4FE4305
:1045540001206361F5E700BF3CF200202DE9F0473C
:1045640090F82FA10569BAF1000F4FD08146884613
:10457400FFF7D4FF002849D0374E0024376818E0ED
:104584006B69190551D4DA0455D4580559D49904E2
:1045940041D43268D21B322A3DD8544507D9EA6D3A
:1045A400520704D19B0555D4B8F1000F52D00EF038
:1045B40063FF5445E4D8EA6D500702F00703DFD4E3
:1045C40013E099F8A5200133022442F48062042BFD
:1045D4002A661ED08A4503F1010309EB01020ED9B4
:1045E40092F8A520042B2A66CAD00121002CE8D019
:1045F4002146013301348A4509EB0102F0D8B8F1B0
:10460400000FBDD04FF400732B66B9E70420BDE85A
:10461400F0870124B4E72B694FF40072042043F4BB
:1046240040732B612A66BDE8F0872B69042043F4AC
:1046340040732B61EBE72B69052043F440732B6136
:10464400E5E72B694FF40072022043F440732B61B9
:104654002A66DCE70020DAE73CF200202DE9F84F77
:1046640083460C4615461F46D0F810A0FFF756FFA8
:10467400002800F09E806100012DDFF83C8140F2AB
:104684000146CBB24FF0000138BF0125D8F80090A5
:104694000C461E43ABF8A21020E09BF8A330872BF6
:1046A4003FD9DAF8142010055AD412F4105F70D1EF
:1046B400D8F80030A3EB0903322B6AD89BF8A33057
:1046C400AB4209D3022C07D9DAF85C30590703D17D
:1046D40093054BD4002F49D00EF0CEFE022CDCD82B
:1046E400DAF85C3003F007025B07D6D4681E224474
:1046F40040F480704CB9CAF860600134131B032B7A
:10470400CBD8022CC9D8002CF5D0012C37D01FB13E
:104714004FF40073CAF860309BF8A3300324872B4E
:10472400BFD8DAF85C2012F4E02FC2F3024CB8D000
:10473400591C9C441933C9B25FFA8CFC5BFA83F3AD
:10474400DAF870004A1C61458BF8A310D1B203F863
:10475400010FA6D08929F3D1DAF814201005A4D5C5
:10476400DAF8103043F44073CAF81030DAF85C30E9
:1047740013F4E02F06D19BF8A300BDE8F88FCAF824
:104784006000BAE7DAF8103043F40073CAF8103066
:10479400F1E7DAF810304FF4007243F44073CAF8CA
:1047A4001030CAF86020DAF85C3013F4E02FE2D05D
:1047B400E8E70420BDE8F88F3CF20020F8B506696C
:1047C4000446D6F8145115F4706301D0C6F81431B8
:1047D400A8070BD5D6F8702111043DD5002301217B
:1047E40084F8A230234484F8A3109A76EA0710D5FB
:1047F40094F83071F7B194F82E7194F82F31BB42CC
:1048040026D97B1C274484F82E3197F8A530C6F8A6
:104814006031AB050DD594F8A30018B1D4F83C3140
:1048240003B198470023A4F8A230A4F82E3184F8E9
:104834003031F8BDD4F8383103B19847002384F8F7
:104844002E31012384F8303194F82F31BB42D8D86B
:104854000023C6F86031DCE794F8A330872BC5D871
:10486400591CC9B2BEE700BF0148FFF7A7BF00BF8C
:1048740038BE00200148FFF7A1BF00BF78BF002069
:104884000148FFF79BBF00BFB8C0002010B4144C10
:1048940000220369A1421A6114D8124C0120124962
:1048A4004FF430329C6458629962DA629C6C002046
:1048B4004FF0011101221C6518625DF8044B9965E3
:1048C4001A6170470948814207D9094C09480A49C5
:1048D4009C645A629862D962E8E7084C0848F6E793
:1048E4007F1A06003B372819B80B05053F420F0015
:1048F4000A09070460090101007F05001C1A120C53
:10490400100E0202704700BF704700BF704700BF1F
:1049140010B504460C210DF02BFB204610BD00BF42
:1049240010B504460C210DF023FB204610BD00BF3A
:1049340038B50C4620220021054604F108001BF07E
:10494400E7FC0B22084920461BF0E0FD68680122C1
:104954000D2306496361064BE1612362C4E9032028
:10496400044AA26138BD00BF7C260020000020C29A
:104974000AD7233C0000AA4238B50C462022002165
:10498400054604F108001BF0C3FC0B22084920462D
:104994001BF0BCFD68680122062306496361064BCF
:1049A400E1612362C4E90320044AA26138BD00BF67
:1049B4007C260020000096436F12033B00009644BF
:1049C40010B5002304460C20C4E90D33C4E90F33A9
:1049D4000DF0C8FA0A4903464FF49B720C20E363B6
:1049E4009C60C3E900120DF0BDFA0649034640F28B
:1049F400371220469C602364C3E9001210BD00BF37
:104A04006C3A0020883A002010B50446C06B10B1FF
:104A140003685B689847206C10B103685B6898472B
:104A2400204610BD30B5002395B001250C22044664
:104A3400CDE90235CDE90025D0E90D1206A80EF026
:104A440077FE0023892106A81A460EF0DFFE0A200D
:104A54000DF0F4F80023082203950DA80092CDE987
:104A64000153D4E90D120EF063FE06232A460DA964
:104A740004A80EF073FF01E00DF0E0F804A80EF0B6
:104A840071FF03460120002BF6D015B030BD00BFE6
:104A94002DE9F04700239AB0012408220646CDE907
:104AA4000234CDE90024D0E90D120CA80EF040FE2A
:104AB400072322460CA905A80EF050FF01E00DF0D3
:104AC400BDF805A80EF04EFF03460120002BF6D0DA
:104AD4001AAB0DF12E0A07AC0746C3F15C094FF07F
:104AE400000809EB0405002313A8ADB2D6E90D12A2
:104AF400CDE90287CDE900570EF01AFE13A80EF097
:104B04000BFF04F8010B5445EBD19DF81D309DF8C3
:104B14001C101A0942EA0112C90902D0A2F58052F6
:104B240012B21B029DF81E109DF81F0003F470635F
:104B340032809DF821201943DB0A9DF8203018BFEC
:104B4400A1F580511B01718043EA003343EA12113D
:104B5400DB0CBDF822304FEA024218BFA1F58011E8
:104B64005BBA02F4702231619BB21343D20CBDF8DC
:104B7400242018BFA3F58013736153BA9AB21D049D
:104B8400BDF8263048BFA2F580325BBAB2801C045F
:104B94009AB2BDF8283048BFA2F580325BBAF280E1
:104BA40018049AB2BDF82A3048BFA2F580325BBA25
:104BB400328119049AB2BDF82C3048BFA2F5803274
:104BC4005BBA72819AB21B0448BFA2F58032B281EB
:104BD4001AB0BDE8F08700BF10B500238EB00124E1
:104BE4000822CDE90234CDE90024D0E90D1207A84A
:104BF4000EF09EFD0523224607A905A80EF0AEFE81
:104C040005A80EF0AFFE003818BF01200EB010BD8D
:104C140010B500238EB001240822CDE90234CDE979
:104C24000024D0E90D1207A80EF082FD04232246C9
:104C340007A905A80EF092FE05A80EF093FE003811
:104C440018BF01200EB010BD10B500238EB0012294
:104C54000C46CDE90232019208220092D0E90D12ED
:104C640007A80EF065FD0023032207A905A80EF08E
:104C740075FE214605A80EF083FE0EB010BD00BFE0
:104C84002DE9F041062398B0012600251746044675
:104C9400009388462B460196CDE90256D0E90D12C1
:104CA4000AA80EF045FD0AA90423032204A80EF065
:104CB40055FE2B4604220AA906A80EF04FFE4146D3
:104CC40004A80EF05DFE394606A80EF059FE09232D
:104CD400019611A800932B46CDE90256D4E90D1292
:104CE4000EF026FD11A90223324608A80EF036FE66
:104CF400032F08A88CBF314629460EF041FE034B12
:104D040053F82730236318B0BDE8F081081F002052
:104D14002DE9F0410723A4B00126002504461746D7
:104D2400009388462B460196CDE90256D0E90D1230
:104D34000FA80EF0FDFC0FA90423032205A80EF012
:104D44000DFE2B4604220FA907A80EF007FE4146CC
:104D540005A80EF015FE394607A80EF011FE1F4BEC
:104D6400019616A853F82730CDE90256E3620923C9
:104D740000932B46D4E90D120EF0DAFC16A9324644
:104D8400032309A80EF0EAFD032F09A894BF2946BE
:104D940031460EF0F5FD01250023282203951DA8B8
:104DA4000092CDE90153D4E90D120EF0C1FC1DA906
:104DB4002A4607230BA80EF0D1FD07232A460FA984
:104DC4000DA80EF0CBFD0BA80EF0CCFD01460DA8EE
:104DD4000EF0D6FD24B0BDE8F08100BF081F00200E
:104DE40030B501238DB000240D220546CDE90243E0
:104DF400CDE900232346D0E90D1205A80EF098FC56
:104E040005A80EF089FD102802D020460DB030BD53
:104E14002846FFF707FE2846FFF73AFE06222846F3
:104E24001146FFF72DFF062228461146FFF770FFB3
:104E340007212846FFF708FF02E00A200CF0FEFED7
:104E44002846FFF7C9FE03462846002BF5D0FFF796
:104E5400DFFE0028F1D00DB030BD00BFF8B5456BC2
:104E6400044665B1002301212846A3630EF0CAFD60
:104E740000B9F8BD2046BDE8F840FFF7B1BF0E46C3
:104E8400174610200DF06EF805463A4631460EF0EE
:104E9400AFFD6563E6E700BF70B5002392B001255E
:104EA40003260446CDE90036CDE90255D0E90D12BA
:104EB40004A80EF03DFC00230BA8CDE90255CDE972
:104EC4000066D4E90D120EF033FC0BA80EF024FD9D
:104ED4000202034648BF00F17F4304A8E3610EF0D9
:104EE4001BFD0302B4F90C30B6EE002B48BF00F1F1
:104EF4007F4001EE103AB4F9083007EE900AA06141
:104F040004EE103AB4F90230B8EEE76AD4ED0C7A44
:104F1400B8EEC11AB8EEE77AD4ED077AB8EEC44A0F
:104F2400F8EEE76AD4ED0B7A86EE075A07EE103AEC
:104F3400B4F90A30F8EEE77AB8EEC77AC6EEA71AE3
:104F440007EE903AB4F90030D4ED056A03EE103A56
:104F5400B4F9063004EE903AF8EEE77AF8EEE65A41
:104F6400D4ED046AF8EEE44AB4F90430A5EE014A3B
:104F7400B8EEC33B06EE103AE5EE274AF8EEE66AD1
:104F8400B8EEC66AE5EE045A27EE217AC4ED091A92
:104F9400A5EE246AB7EEC77AE5EE256AA3EE027B96
:104FA400B7EEC77BF0EE667A84ED087AE1EE867A96
:104FB400C4ED0A7A12B070BD38B585680C4628462F
:104FC400FFF76AFF7CB120220021201D1BF0A0F90D
:104FD4000122064B0D212260686C1A682B6A22613B
:104FE4006361C4E90101012038BD00BF3CF2002027
:104FF40038B585680C462846FFF74EFFACB1202231
:105004000021201D1BF084F9D5ED0A6A9FED087A72
:105014000122084B0621C6EE877A22606A6C1B685F
:105024002361C4E90121C4ED057A012038BD00BF24
:105034000000C8423CF2002070B50D4606461446F6
:10504400FFF72AFF7DB120220021281D1BF060F903
:105054000122114B0D212A601B68726C2B61336A8B
:10506400C5E901216B61ACB120220021201D1BF098
:105074004FF9D6ED0A6A9FED097A0122064B062103
:10508400C6EE877A2260726C1B682361C4E9012131
:10509400C4ED057A012070BD3CF200200000C84236
:1050A40070B500F1240384B08C46044601AD164665
:1050B40093E8070085E807004FEA4C122946206A66
:1050C40001F068FB012806D132462946206A01F026
:1050D40045FB04B070BD002004B070BD10B504469B
:1050E40000F0BAFD002384F8313084F8333010BD69
:1050F40038B514460D46002200F12401006A01F07F
:105104002DFB034620B1428901202A801B8923807C
:1051140038BD00BF38B514460D46002200F1240105
:10512400006A01F01BFB034620B1C28901202A80DA
:105134009B89238038BD00BF38B50D4690F83110E7
:1051440009B1002038BD382204461BF0E1F80123E0
:1051540040222562184684F8333084F8312038BD63
:10516400F0B40D460978202903D115F8014F202CFD
:10517400FBD0156095602C782F2C11D084B16E1C57
:105184003C2C1D4F35462AD8212C12D804F1FF3C63
:10519400BCF11E0F16D80020F0BC704715F8014F63
:1051A400202CFBD02F2CF9D01D601146F0BC01F04F
:1051B400C3B9A4F1220C5FFA8CFC27FA0CFC1CF096
:1051C400010FE8D12E2C01D0202C0DD116F8014B63
:1051D400002CE5D02F2CE3D03C2C3546D4D95C2CC4
:1051E400D9D003D97C2CD6D09660EFE73E3C012C75
:1051F400FAD80020F0BC7047012100052DE9F04FDA
:1052040090F8333083B00546DC0774D558060F4652
:10521400904640F1B080D5E90023D5E9041018EB9D
:10522400020443F10003A14270EB0303C0F0A98020
:10523400B8F1000F5BD0464605F11809D5E90032F4
:10524400D5F820A0DAF838441C40C4F3080B002C2D
:1052540070D1134370D195F831305A064CBFDAF847
:105264003424EA69AA619AF84504023ADAF82C145B
:10527400630A824001EB54211144BBF1000F45D174
:10528400B6F5007F42D3DAF81C2291423ED0B6F53F
:10529400806F58D34FF0010B0BFA00FBABEB030B01
:1052A400730A9B4528BF9B4691424FEA4B240AD878
:1052B40001EB0B039A4206D20AF50470019103F044
:1052C4001BFE0199B8B1DAF814025B460268D2F801
:1052D40014A03A46D04770B123462744D5E90012BA
:1052E4005B1842F10002361BC5E90032A8D14046E2
:1052F40003B0BDE8F08F95F832304FF0FF3043F043
:10530400020385F8323003B0BDE8F08FCBF50074AA
:1053140000220AF50470B44228BF344603F018FE94
:105324000028E8D000EB0B01224638460CF080FD43
:105334002346D2E7AA6996E795F833305B060ED583
:10534400AA6901328EE7DAF814023A4603681B6947
:1053540098470028CFD04FF400731C46BDE74A4657
:105364005046A96901F058FA0028C4DB0CD0D5F8DE
:1053740020A0AA6977E795F8313019077FF558AF6F
:1053840049E7A1EB020853E795F8313013F0500FC9
:10539400B1D0A8EB06084046AAE700BFF0B583B039
:1053A4000122044685690DF10701D0E90067FFF782
:1053B40025FF0128A5610CBF9DF807004FF0FF30C1
:1053C400C4E9006703B0F0BD2DE9F04F1F4690F823
:1053D400313083B00446D0F81880002B51D01646E3
:1053E400D0E9001CBC4508BF91425CD056EA0702D4
:1053F4004DD01D0704D5D0E90402B042BA4140D3D0
:1054040094F83320751ED4F820A0019247F1FF30A0
:105414009AF845240932D2B2C2F1200ED540A2F145
:10542400200900FA0EFB20FA09F045EA0B050543B2
:105434000198400633D4481E20FA02F24CF1FF30A2
:1054440051EA0C0C00FA0EFE20FA09F042EA0E02B0
:1054540042EA000201D0954229D25B064CBFDAF839
:105464003434E369A36104F1180906E0A169013D3C
:10547400206A01F0D1F9002803DD4A46002DF5D158
:1054840007E00020C4F8188003B0BDE8F08F0023C3
:1054940083610120C4E9006703B0BDE8F08FE369CC
:1054A4002B44A361F5E7012003B0BDE8F08FAD1AEA
:1054B400D9E700BF2DE9F04F174690F831208FB09F
:1054C4000546002A40F0D7808B4691F8311011F040
:1054D400500F00F0D08003F003019A46032900F036
:1054E400CA80013103F0080041EA00030293002F4F
:1054F40000F0CB80396901F10E08B649A1FB081808
:10550400DBE900104FEAD808014308F102085FFA0A
:1055140088F805D000200021CBF81820CBE9000141
:105524000024029B264643F040030393202206A94D
:105534005846FFF763FE00B3202840F09C809DF995
:1055440018209DF81830002AC0F2A28034B9DBF884
:105554000020A2F12009DBF818200192444501D271
:105564000134E4B2002B00F01381202206A958462E
:105574000026FFF743FE0028DED11AF4007F7AD01C
:10558400029B9B0777D5002F75D0444517D2DDF8D1
:1055940004A0202206A95846FFF730FE631C002809
:1055A40061D0202867D12CB9DBF80020DBF818A0E3
:1055B400A2F12009DCB2A045EBD8CDF804A0382232
:1055C400002128469BF833401AF0A2FEDBF8203075
:1055D400C4F38014019A2B620823002685F82C401A
:1055E40085F831303B68C5E909297B60BE81B8F193
:1055F400000F33D008F1FF39B346DFF8DCA15FFABE
:1056040089F9012259462846FFF74AFD044690B31A
:1056140090F90020002A2EDB202200211AF078FEC7
:10562400002E00F0BC80BBF1010F00F0D780C12335
:10563400A3461E3404F81E3CBB8938461BB9D7E97F
:1056440001239A4205D003F0C1FC2BF8020FA345B5
:10565400F2D101365FFA86FBD845D2D8284600F04D
:10566400FBFA06460DE05846DBF8186000F024FB10
:10567400002840F0918000231E4685F8313085F8DB
:10568400333030460FB0BDE8F08F4FF0030847E7E2
:1056940056BB444538BF0024852B7FF447AF3146C1
:1056A4003822284601261AF033FE9DF81C209DF866
:1056B400193085F8303002F03703D20658BF43F072
:1056C400080385F83130DBF80030DBF82020203B7C
:1056D4002A62DBF81820C5E909239BF83330C3F3A9
:1056E400801385F82C3021E7C02B28D0C12B7FF400
:1056F4003CAF3A4606A9284600F092FEE8B1BB89C1
:10570400DBB9D7E901329A4217D11AF4006FB2D14A
:105714001AF4884F70D195F8333098076CD41AF482
:10572400806FA8D11AF4804FABD02846D5E9042362
:10573400FFF74AFE0028A4D19DE70646F6E6029B41
:1057440085F833309DF819309B0702D5039B85F803
:1057540033300B9BEB61DDE90823C5E90423DDE964
:105764000C23C5E90223002FCFD04FF000033A6980
:10577400BB813B687B609DF81B309A427FF4F5AE99
:10578400BE8ABDF81C30F61AB6FA86F67609CDE65E
:10579400002F7FF4F2AE6EE7CBF818600BE7852399
:1057A400237085F8309084F80190DAF80030002BEB
:1057B40046D00DF113020DF1160105A89847BDF866
:1057C40014306381BDF8163023819DF8133023759E
:1057D4003FE700BF8988888828E10020C02384F837
:1057E40001B02370029B63F07F0385F833303B697B
:1057F400E370BB8AA3802CE795F83130D9063FF5D6
:105804003AAF13F001017FF436AF1AF4806F89D0F8
:1058140095F8332092077FF52EAF002B3FF42BAF82
:10582400D5E90032134304D000220023A961C5E95D
:105834000023284600F042FC00283FF41CAF20E778
:1058440045F621436381E381638202E72DE9F04356
:10585400002597B0994690F8313001921495ADF82F
:105864001450002B3ED191F831300F4613F0500FF5
:1058740038D01378044616462F2B37D04FF0000843
:1058840001AB02AA31462046FFF76AFC50B3019EE1
:105894003378002B3ED0002302AA39462046FFF776
:1058A40009FEF8B1A44608AD04F13007DCF80000A5
:1058B4000CF1100C5CF80C1CAE465CF8082C10358E
:1058C4005CF8043CBC45AEE80F00EFD1DCF8000006
:1058D40008AF2860204600F0BFF984F8318084F8CE
:1058E4003380CDE7002017B0BDE8F08316F8011F20
:1058F4002F29FBD00196B1B9382220463D6A1AF00F
:1059040007FD012340222562184684F8333084F8C9
:105914003120E8E74B4602AA39462046FFF7CAFD84
:1059240017B0BDE8F0833822002108A83D6A1AF0B8
:10593400EFFC012308AF10958DF8533040238DF808
:1059440051309BE719B101F58961FFF77FBF084624
:10595400704700BF90F8313063B991F8313013F0DB
:10596400500F07D00B6813F01F0C03D11346624687
:10597400FFF7A0BD002070478169F8B50446006AAE
:1059840001B10131012200F00DFE0128054632D992
:1059940001230146206A1A4600F064FE064650B30D
:1059A400A3695BB394F83320510612D5591CA9425C
:1059B40018D022F04002E16984F8332005E0206A1F
:1059C40000F04CFF3946B0B1A3694F1C99423A46E6
:1059D400F5D34FF0FF322946206A00F03FFF50B163
:1059E400A16911B93046A561F8BD2A46206A00F0C4
:1059F40035FF0028F6D100263046F8BD94F8333040
:105A040043F0400384F83330ECE700BF90F83330C0
:105A14009A0736D5C16970B50546A1B90024214657
:105A240007E0037803F07F03037095F830308B426E
:105A340029D3013401222846FFF732FBE1B20028C2
:105A4400EFD1002070BD5B06006A34D590F8453470
:105A5400D5E902240933013ADBB244F1FF34C3F13E
:105A6400200CDA40203B04FA0CFC24FA03F342EA4B
:105A74000C021A430023013200F0F4FD0028CDD1BA
:105A8400DFE70020704700232C6A85F83130204678
:105A940085F8333003F030FA0028D2D004F50470CE
:105AA40003F02AFA0028CCD0D4F840040368BDE8F7
:105AB40070401B6A184700F0F1FE0028AED1C0E721
:105AC40090F83130DB0601D40020704710B5002275
:105AD40088B000230446FFF777FC08E020281BD198
:105AE4009DF900309DF80020002B15DB32B12022F7
:105AF40069462046FFF782FB0028EFD194F8333043
:105B04000822204643F0020384F8312084F833301D
:105B1400FFF77CFF08B010BD002008B010BD00BF27
:105B24002DE9F0414FF0000882B04A4F0646444642
:105B3400414600223046FFF7B3FA054630B10178FA
:105B4400C02969D0C1292BD0852909D096F83230D3
:105B5400002043F0010386F8323002B0BDE8F08142
:105B640096F8313003F0370383803B6883B10DF13D
:105B740003020DF1060101A89847BDF80630AB8178
:105B84002B82BDF80430EB816B829DF803306B757A
:105B9400326A92F8103243F0010382F81032297805
:105BA400A1F185000022B0FA80F0400901E004224E
:105BB400A95CE303012A02F1010243EA540311FA46
:105BC40083F39CB201D10028F1D11F2AF0D908F146
:105BD400010896F830305FFA88F18B42A9D201228D
:105BE40006F12401306A00F0B9FD0028AED0356A10
:105BF4004480284603F080F90028A7D005F50470F6
:105C040003F07AF90028A1D0D5F8400403681B6A90
:105C140098470028A1D199E796F8333013F0400F44
:105C2400437814BF43F0020303F0FD034370D6E945
:105C34000401D6E90732C5E90201D6E902016B6124
:105C4400C5E9060192F8103243F0010382F81032DC
:105C54002978A5E728E1002038B590F8313043B31E
:105C640090F93320044690F83330002A0CDB056A9F
:105C7400284603F041F978B994F83230002043F013
:105C8400010384F8323038BD03F07F0380F83330E9
:105C9400BDE83840FFF744BF05F5047003F02CF964
:105CA4000028E9D0D5F8400403681B6A9847002807
:105CB400E2D0012038BD00BF70B590F83130054600
:105CC4005A064CD480682B6AD3F83C341844B0F19B
:105CD400806F01D3002070BD2846FFF74DFE0028D9
:105CE400F8D0286A0024AE6990F84534023E9E40FC
:105CF400D0F82C341E443119052200F50470013407
:105D040003F026F94FF4007200210028E2D01AF0C3
:105D1400FFFA286A012390F8452493409C42EAD371
:105D240095F831305B0615D495F8332062F07F0284
:105D3400D5E9023185F83320D0F83C249B1841F191
:105D44000000AB60D5E90431E8609B1841F1000123
:105D5400C5E904312846BDE87040FFF77DBF006AFD
:105D640000F0A2FEAFE700BF70B5044690F8310022
:105D74009CB0002310F0180F0C931A9303D0206AE0
:105D84000B6A984202D000201CB070BD40F601237B
:105D94006846FFF75BFD0028F5D0A44604F1300601
:105DA4000EADDCF800000CF1100C5CF80C1CAE46D7
:105DB4005CF8082C10355CF8043CB445AEE80F00E0
:105DC400EFD1DCF8000009AA04F1240328609DF84F
:105DD400305007CA83E8070094F83330204684F82B
:105DE400305063F07F0384F83330FFF735FF002829
:105DF400C9D00021022208230EA815918DF86B202A
:105E04008DF86930FFF702FEBEE700BF38B591F8A0
:105E1400313013F0500F02D10025284638BD40F62A
:105E240002230446FFF746FB0028F5D01023204642
:105E340084F83130FFF740FF05460028ECD0A16913
:105E4400002200232046E161FFF7BEFAC12294F844
:105E5400313084F83320002BDFD04123204684F8EE
:105E64003330BDE83840FFF75BBE00BFF0B5002516
:105E740097B01F4690F831300192ADF81450149544
:105E8400002B46D191F831300E4613F0500F40D01C
:105E94001378044611462F2B3ED001AB02AA2046AC
:105EA400FFF75EF9002834D0019B1B78002B41D00A
:105EB400002302AA31462046FFF7FCFA30B947B363
:105EC40002AA31462046FFF7A1FF10B3A44608AD4D
:105ED40004F13006DCF800000CF1100C5CF80C1C2A
:105EE400AE465CF8082C10355CF8043CB445AEE8CA
:105EF4000F00EFD1DCF8000008AE28602046FFF761
:105F0400EDF8019901AB02AA2046FFF729F9002810
:105F1400CAD1002017B0F0BD013101910B782F2BAD
:105F2400FAD0316A08A8FFF707F90028F1D00199DF
:105F340008AEB2E702AA31462046FFF767FF17B062
:105F4400F0BD00BF2DE9F04F0E4690F8311083B03C
:105F540009079DF830B09DF834909DF838809DF87D
:105F64003C7040F18580A2F2BC7294B27F2C7FD841
:105F74005A1E0B2A7CD80BF1FF321E2A78D8B8F1AE
:105F84003B0F98BFB9F1170F8CBF4FF0010A4FF0C8
:105F9400000A3B2F88BF4AF0010ABAF1000F67D10B
:105FA40005460193FFF758FE002861D0019B514636
:105FB4004BEA431B7B0817F001074BEA4424D34602
:105FC40043EA481818BF6427A4B248EAC92806F06F
:105FD40001091FFA88F800222846FFF761F8002813
:105FE40046D090F800C0BCF1850F45D00CF14003B9
:105FF400DBB2012B3CD8ACF185010023B1FA81F16D
:10600400490902E0042310F803C04FEACB32012B04
:1060140003F1010342EA5B021CFA82F21FFA82FBDB
:1060240001D10029EED11F2BEDD90AF1010A95F80F
:1060340030305FFA8AF18B42CDD2012205F124017E
:10604400286A00F08BFB98B12C6AA0F802B02046B5
:1060540002F052FF60B104F5047002F04DFF38B154
:10606400D4F8400403681B6A03B0BDE8F04F184736
:10607400002003B0BDE8F08F95F831302A6A03F0B0
:106084003703838092F8103243F0010382F8103210
:10609400B9F1000F02D0A0F810804482B20703D5F2
:1060A4000775A0F808804481730703D54775A0F8E5
:1060B4000C80C48190F800C09DE700BF90F8333095
:1060C4009A0762D570B5C56982B00446A5B313F0CA
:1060D400400634D0006AA26890F845C4013AE168E9
:1060E4000CF1090C41F1FF315FFA8CFCCCF1200E6C
:1060F40022FA0CF2ACF1200C01FA0EFE21FA0CFC8F
:10610400A16942EA0E0242EA0C02013219B3013DCE
:106114006D1A01312A44019172BB63F07F0320465A
:1061240094ED007B84F8333084ED027B84ED047BB2
:10613400FFF792FD02B070BD012002B070BD81690D
:1061440061B90195C1612946206A00F0A7FBC8B175
:1061540094F83330E1E70195E161DDE701AA006AD3
:10616400019600F059FB00280CDB10D1019D002D95
:10617400E9D194F83330D0E70023019900F072FAA2
:106184000028E5D1002002B070BD002070474FF018
:10619400FF32A169206A00F061FB0028E6D1F1E733
:1061A4002DE9F04390F8333083B004469D0740F165
:1061B400A18091461A070E4600F19580B9F1000FAF
:1061C40000F0288123684D46206AA169D0F838245C
:1061D40002EA0308C8F30807B8F1000F40F09480FE
:1061E400002900F0D48094F833305B0640F1EC8051
:1061F40090F845C4D4E902320CF1090C013B5FFA72
:106204008CFC42F1FF32CCF1200E23FA0CF3ACF1FA
:10621400200C02FA0EFE22FA0CFCE26943EA0E0399
:1062240043EA0C031344994280F0D5800131A16103
:1062340090F845240239D0F82C3491401944B5F52E
:10624400007FC0F08A80B5F5806FC0F0A68001237E
:1062540093406A0AA3EB0803934228BF1346D0F87D
:106264001C228A424FEA432809D35F18BA4206D255
:10627400002280F810224FF0FF32C0F81C22D0F820
:10628400140232460768BF6AB84798B34346464487
:10629400A5EB0805D4E90072D4E90401DB1942F145
:1062A400000298429141C4E9003207D294F83310B5
:1062B40061F07F01C4E9043284F83310002D83D1E6
:1062C400D4E9020198429141C0F09680534B1B6877
:1062D400002B00F09D8094F83330484663F07F0330
:1062E40084F833300DE0D0E90423FFF76DF800287B
:1062F4007FF464AF94F83230002043F0010384F853
:10630400323003B0BDE8F08390F8452402394FEAF7
:106314005828D0F82C34914041441944002F8ED091
:10632400C7F50078012200F50470A84528BFA846E7
:1063340002F00EFE0028DDD0384447444246314680
:106344000BF076FDB7F5007F206A9FD100F504704D
:1063540002F0D2FD002899D1CCE76268636900920B
:106364000193226923689342DDE900239A4112D202
:10637400012200F5047002F0EBFD0028BAD02A4691
:1063840031463844A8460BF053FD2B467FE7E169BC
:1063940049B3A1614CE70522EBE7D0F81C328B42EC
:1063A40006D1002380F810324FF0FF33C0F81C32BE
:1063B400D0F81402324603685B6A9847002899D0E3
:1063C4004FF40073984662E704F1180200F024FACF
:1063D40000288FDB04D12046FFF7CEFA002889D0AD
:1063E400A169206A24E72046FFF7C6FA002881D075
:1063F400A169206AE1611BE794F833104846C4E9B7
:10640400023261F07F0384F8333003B0BDE8F083D7
:10641400484676E7D4E9003252E700BF28E100207D
:106424002DE9F0410C46154601F11E08AB892846BA
:1064340034F8027F1BB9D5E901239A420ED002F049
:10644400C5FD02F087FE0646384602F083FE86420A
:1064540009D14445EAD10120BDE8F081B7FA87F0BB
:106464004009BDE8F0810020BDE8F0812DE9F04F3E
:1064740090F8313083B08846002B4FD090F83030FC
:106484000746012B53D9013A0B464FF0020A002468
:106494008E18DFF8A0B00022514638460193FEF76B
:1064A400FFFD00283AD00278C12A37D1054600F111
:1064B4001E09019B35F8020F24B300F5105292B265
:1064C400B2F5806F2AD20BEA8424C0F3090020437A
:1064D40000F580301946324602F09EFD0346E8B1CD
:1064E40000244D45E6D10AF1010A97F830205FFAFD
:1064F4008AFA5245CFD2A3EB08009846002388F8C5
:1065040000300FE000F5205292B2B2F5006F02D3D2
:106514000028DFD1EFE7B2F5806F06D300231846D9
:1065240088F8003003B0BDE8F08F0446D9E70020B6
:10653400E4E700BF00FC0F0070B50C4600234FF6E3
:10654400FF75226819461E46A3812361626017E025
:1065540002F03CFDA84222D002F0FCFD2369F203C4
:10656400A189013342EA5602060A236152FA80F0F5
:1065740083B2C0F34E0040EAC33016FA80F086B20C
:1065840020460029E4D1D4E901239A42E0D12069CC
:10659400A6820138FE288CBF0020012070BD002097
:1065A40070BD00BF2DE9F84F07468A469146002981
:1065B40042D0A1F10208D7F83034434542D908F05B
:1065C40007030125C8F3C80B9D40EDB24646444677
:1065D400D7F82C140022384601EB143102F0B8FC31
:1065E400E8B10BF1FF3B834400F2FF101BF8011FDD
:1065F4000AE04A452BD0A04510D0D7F83054A54224
:1066040014D913F0FF050CD0013429424FEA450395
:10661400A4EB0602EDD0A0452646EED10120BDE84C
:10662400F88F58454FF00105E0D101E000263446CB
:1066340001254FF0000BCBE7D0F82084D7F8303495
:106644004345BCD84FF000080125C346BEE7BAF164
:10665400000F04D1B9F1010F08BFC7F82064B01CC2
:10666400BDE8F88F2DE9F8438046881E15461E467E
:106674008318D8F83024934237D8CEBBD8F82034C6
:10668400834288BFC8F8200400F007030124D8F827
:106694002C74C0F3C8099C4007EB1031E4B201220A
:1066A40040468F1802F054FCF8B109F1FF3E8644CD
:1066B40000F2FF101EF801CF1CEA040F8CEA040C50
:1066C4004FEA440414BF01220022B2420DD0013D1E
:1066D4008EF800C018D014F0FF04EDD17045A14627
:1066E4004FF00104E6D13946D9E70020BDE8F8832C
:1066F400D8F820148B42C7D98142C5D3934228BF0E
:106704000023C8F82034BFE70120BDE8F88300BFA8
:10671400F8B5D0F8303401338B4201D20020F8BDF3
:1067240007460C4600F50476002505E0D7F830341A
:1067340001350133A342F1D3D7F8241400223046A3
:1067440001EBD41102F004FCA4000028E6D0C4F349
:1067540008040459631CE9D1681CF8BD38B50C461B
:106764000B6890F845C400F50470D0F82812023B79
:10677400656803FA0CF3294003EB5123D0F81C128B
:10678400194402F0E5FB18B16368C3F30803184425
:1067940038BD00BF2DE9F8430C46D0F838344968B9
:1067A4000B4011446160134490F8451401F109024F
:1067B400D2B2D3402BB380465D1E00F5047905E0C8
:1067C4002368013D03F1010323601AD3267A002EC6
:1067D400F6D1D8F8303432462768484601339F4210
:1067E40012D8D8F8241401EBD71102F0B1FBBF0082
:1067F40050B1C7F30807C3595A1C09D0013D23609F
:10680400E4D20120BDE8F8834FF0FF30BDE8F883FF
:106814003046BDE8F88300BF38B5D0F830340133D2
:106824008B4202D24FF0FF3038BD0C46D0F824140E
:10683400154600F50470002201EBD41102F088FB28
:106844000028EFD0A400C4F3080403595A1C02D052
:1068540001202B6038BD002038BD00BF01291BD9A1
:1068640038B5D0F830340C4601338B4201D20020C5
:1068740038BDD0F82414154600F50470012201EB4C
:10688400D41102F065FB03460028F0D0A4000120D7
:10689400C4F308041D5138BD00207047D0F83034CB
:1068A4000133994201D9002070472DE9F04F054684
:1068B40083B00C4600F504790F464FF00008D5F874
:1068C4002414002248464FEAD41B01EBD41102F0F1
:1068D4003FFB90B1A300C3F30803C2580193531CB8
:1068E40016BF16464FF0000A4FF0010A012C04D9D6
:1068F400D5F830240132944203D9002003B0BDE816
:10690400F08FD5F8241401224846594402F020FBA4
:106914000028F2D0019B40F80380BAF1000F12D096
:106924000134B44208D00023E21B39462846FFF75D
:1069340099FE0028E1D03746D5F830340133B3420C
:10694400DBD33446BBE7621C534639462846D21B88
:1069540003B0BDE8F04FFFF785BE00BF2DE9F84353
:1069640000250646D0F82C1400F504782C460022A5
:1069740040464F1C02F0ECFAA8B100F1FF3E04F5CA
:106984008059D6F8300405E079B90834844209D234
:106994004C4516D01EF8011FFF29F5D108340835DF
:1069A4008442F5D3401BBDE8F88308220123194231
:1069B4004FEA430C18BF0135013A5FFA8CF3F6D164
:1069C400E3E73946D3E700BFF8B500234FF0FF36BD
:1069D40000F504771546C0F84014044641601A4691
:1069E400C0F81412194680F844340370C66080F865
:1069F4001032C0F81C62384602F0AAFA042D0DD8F1
:106A0400064658B1BDB16B1E00EB031393F8BE21CB
:106A140012F07F0202D193F8C2310BB90020F8BD05
:106A240000EB05163846D6F8B651294602F090FA1E
:106A340006460028F2D005221A49F01C19F020FD60
:106A44000028EBD196F86C30092BE7D1336D014661
:106A54002B44C4F82434736DC4F82834B36D2B4428
:106A64000125C4F82C34F36DC4F83034336EC4F803
:106A7400343496F86D20C4F82004204602F109034A
:106A840084F8452405FA03F35A1EC4F83C34C4F8C8
:106A940038242A46FFF786FD4023284684F84434E8
:106AA400F8BD00BF7426002010B50446D0F8341495
:106AB400FFF72EFE94F845340933DBB2984010BD3D
:106AC40070B590F9023082B00446002B0DDBA56846
:106AD40005F1280002F010FA00283BD16378002069
:106AE40043F00103637002B070BD80680122A169A4
:106AF400283002F02DFA0028F0D0A58805F00F0503
:106B04006B0100EB4515C35CE52BE7D023781B072D
:106B140001D5E369EB61236A15491A0C6B830E688E
:106B2400AA8266B10DF103020DF1060101A8B04776
:106B3400BDF80430BDF806202B836B82EA82A3786B
:106B4400A56803F07F0305F12800A37002F0D4F9CF
:106B54000028C3D005F50E7002F0CEF90028BDD090
:106B6400286803681B6A98470028B7D0BBE700BFB2
:106B740028E10020024638B552F8105F04468068C8
:106B8400294601F037FE50B155B123690135AB42B6
:106B9400A37818BF03F0BF0363F07F03A37038BD6D
:106BA400A37843F04003F7E7F8B5047814F0200421
:106BB40004D11A4B054642699A4202D3002738464B
:106BC400F8BDFFF7D7FF07460028F7D0A8682E695D
:106BD4008279023E416996400E440179A9B1214669
:106BE40006E019F095FBA868E1B202798A420BD954
:106BF400314405222830013402F0AAF94FF400721E
:106C040000210028EDD1D9E782794FF40073696936
:106C14003846934011FA83F36B61F8BD00FE1F0000
:106C240010B5044680680A462830A16902F090F93C
:106C340020B1A38803F00F0300EB431010BD00BF85
